{
  "contractName": "Tasks",
  "abi": [
    {
      "inputs": [],
      "name": "count",
      "outputs": [
        {
          "internalType": "uint256",
          "name": "",
          "type": "uint256"
        }
      ],
      "stateMutability": "view",
      "type": "function",
      "constant": true
    },
    {
      "inputs": [
        {
          "internalType": "uint256",
          "name": "",
          "type": "uint256"
        }
      ],
      "name": "tasks",
      "outputs": [
        {
          "internalType": "uint256",
          "name": "id",
          "type": "uint256"
        },
        {
          "internalType": "address",
          "name": "owner",
          "type": "address"
        },
        {
          "internalType": "string",
          "name": "title",
          "type": "string"
        },
        {
          "internalType": "string",
          "name": "description",
          "type": "string"
        },
        {
          "internalType": "uint256",
          "name": "amount",
          "type": "uint256"
        },
        {
          "internalType": "bool",
          "name": "completed",
          "type": "bool"
        }
      ],
      "stateMutability": "view",
      "type": "function",
      "constant": true
    },
    {
      "inputs": [
        {
          "internalType": "string",
          "name": "_title",
          "type": "string"
        },
        {
          "internalType": "string",
          "name": "_description",
          "type": "string"
        },
        {
          "internalType": "string[]",
          "name": "_files",
          "type": "string[]"
        },
        {
          "internalType": "uint256",
          "name": "_amount",
          "type": "uint256"
        }
      ],
      "name": "createTask",
      "outputs": [
        {
          "internalType": "uint256",
          "name": "",
          "type": "uint256"
        }
      ],
      "stateMutability": "nonpayable",
      "type": "function"
    },
    {
      "inputs": [
        {
          "internalType": "uint256",
          "name": "_taskId",
          "type": "uint256"
        },
        {
          "internalType": "address payable",
          "name": "_worker",
          "type": "address"
        }
      ],
      "name": "confirmTask",
      "outputs": [],
      "stateMutability": "payable",
      "type": "function",
      "payable": true
    },
    {
      "inputs": [],
      "name": "getTasksList",
      "outputs": [
        {
          "components": [
            {
              "internalType": "uint256",
              "name": "id",
              "type": "uint256"
            },
            {
              "internalType": "address",
              "name": "owner",
              "type": "address"
            },
            {
              "internalType": "string",
              "name": "title",
              "type": "string"
            },
            {
              "internalType": "string",
              "name": "description",
              "type": "string"
            },
            {
              "internalType": "string[]",
              "name": "files",
              "type": "string[]"
            },
            {
              "internalType": "uint256",
              "name": "amount",
              "type": "uint256"
            },
            {
              "internalType": "bool",
              "name": "completed",
              "type": "bool"
            }
          ],
          "internalType": "struct Tasks.Task[]",
          "name": "",
          "type": "tuple[]"
        }
      ],
      "stateMutability": "view",
      "type": "function",
      "constant": true
    }
  ],
  "bytecode": "0x608060405234801561001057600080fd5b5061159f806100206000396000f3fe60806040526004361061004a5760003560e01c806306661abd1461004f5780636ac277531461007a5780638d97767214610096578063c259f9a9146100d8578063ecd1a1f314610115575b600080fd5b34801561005b57600080fd5b50610064610140565b60405161007191906110d2565b60405180910390f35b610094600480360381019061008f9190610ce0565b610146565b005b3480156100a257600080fd5b506100bd60048036038101906100b89190610cb7565b61037b565b6040516100cf969594939291906110ed565b60405180910390f35b3480156100e457600080fd5b506100ff60048036038101906100fa9190610c0c565b610504565b60405161010c91906110d2565b60405180910390f35b34801561012157600080fd5b5061012a610682565b6040516101379190611030565b60405180910390f35b60015481565b60008210158015610158575060015482105b610197576040517f08c379a000000000000000000000000000000000000000000000000000000000815260040161018e90611072565b60405180910390fd5b60008083815481106101d2577f4e487b7100000000000000000000000000000000000000000000000000000000600052603260045260246000fd5b9060005260206000209060070201905080600501543414610228576040517f08c379a000000000000000000000000000000000000000000000000000000000815260040161021f906110b2565b60405180910390fd5b8060010160009054906101000a900473ffffffffffffffffffffffffffffffffffffffff1673ffffffffffffffffffffffffffffffffffffffff163373ffffffffffffffffffffffffffffffffffffffff16146102ba576040517f08c379a00000000000000000000000000000000000000000000000000000000081526004016102b190611092565b60405180910390fd5b600015158160060160009054906101000a900460ff16151514610312576040517f08c379a000000000000000000000000000000000000000000000000000000000815260040161030990611052565b60405180910390fd5b8173ffffffffffffffffffffffffffffffffffffffff166108fc349081150290604051600060405180830381858888f19350505050158015610358573d6000803e3d6000fd5b5060018160060160006101000a81548160ff021916908315150217905550505050565b6000818154811061038b57600080fd5b90600052602060002090600702016000915090508060000154908060010160009054906101000a900473ffffffffffffffffffffffffffffffffffffffff16908060020180546103da9061134d565b80601f01602080910402602001604051908101604052809291908181526020018280546104069061134d565b80156104535780601f1061042857610100808354040283529160200191610453565b820191906000526020600020905b81548152906001019060200180831161043657829003601f168201915b5050505050908060030180546104689061134d565b80601f01602080910402602001604051908101604052809291908181526020018280546104949061134d565b80156104e15780601f106104b6576101008083540402835291602001916104e1565b820191906000526020600020905b8154815290600101906020018083116104c457829003601f168201915b5050505050908060050154908060060160009054906101000a900460ff16905086565b6000806040518060e0016040528060015481526020013373ffffffffffffffffffffffffffffffffffffffff1681526020018781526020018681526020018581526020018481526020016000151581525090806001815401808255809150506001900390600052602060002090600702016000909190919091506000820151816000015560208201518160010160006101000a81548173ffffffffffffffffffffffffffffffffffffffff021916908373ffffffffffffffffffffffffffffffffffffffff16021790555060408201518160020190805190602001906105eb929190610963565b506060820151816003019080519060200190610608929190610963565b5060808201518160040190805190602001906106259291906109e9565b5060a0820151816005015560c08201518160060160006101000a81548160ff021916908315150217905550505060016000815480929190610665906113b0565b919050555060018054610678919061127d565b9050949350505050565b60606000805480602002602001604051908101604052809291908181526020016000905b8282101561095a57838290600052602060002090600702016040518060e0016040529081600082015481526020016001820160009054906101000a900473ffffffffffffffffffffffffffffffffffffffff1673ffffffffffffffffffffffffffffffffffffffff1673ffffffffffffffffffffffffffffffffffffffff1681526020016002820180546107399061134d565b80601f01602080910402602001604051908101604052809291908181526020018280546107659061134d565b80156107b25780601f10610787576101008083540402835291602001916107b2565b820191906000526020600020905b81548152906001019060200180831161079557829003601f168201915b505050505081526020016003820180546107cb9061134d565b80601f01602080910402602001604051908101604052809291908181526020018280546107f79061134d565b80156108445780601f1061081957610100808354040283529160200191610844565b820191906000526020600020905b81548152906001019060200180831161082757829003601f168201915b5050505050815260200160048201805480602002602001604051908101604052809291908181526020016000905b8282101561091e5783829060005260206000200180546108919061134d565b80601f01602080910402602001604051908101604052809291908181526020018280546108bd9061134d565b801561090a5780601f106108df5761010080835404028352916020019161090a565b820191906000526020600020905b8154815290600101906020018083116108ed57829003601f168201915b505050505081526020019060010190610872565b505050508152602001600582015481526020016006820160009054906101000a900460ff161515151581525050815260200190600101906106a6565b50505050905090565b82805461096f9061134d565b90600052602060002090601f01602090048101928261099157600085556109d8565b82601f106109aa57805160ff19168380011785556109d8565b828001600101855582156109d8579182015b828111156109d75782518255916020019190600101906109bc565b5b5090506109e59190610a49565b5090565b828054828255906000526020600020908101928215610a38579160200282015b82811115610a37578251829080519060200190610a27929190610963565b5091602001919060010190610a09565b5b509050610a459190610a66565b5090565b5b80821115610a62576000816000905550600101610a4a565b5090565b5b80821115610a865760008181610a7d9190610a8a565b50600101610a67565b5090565b508054610a969061134d565b6000825580601f10610aa85750610ac7565b601f016020900490600052602060002090810190610ac69190610a49565b5b50565b6000610add610ad884611181565b61115c565b90508083825260208201905082856020860282011115610afc57600080fd5b60005b85811015610b4657813567ffffffffffffffff811115610b1e57600080fd5b808601610b2b8982610bcd565b85526020850194506020840193505050600181019050610aff565b5050509392505050565b6000610b63610b5e846111ad565b61115c565b905082815260208101848484011115610b7b57600080fd5b610b8684828561130b565b509392505050565b600081359050610b9d8161153b565b92915050565b600082601f830112610bb457600080fd5b8135610bc4848260208601610aca565b91505092915050565b600082601f830112610bde57600080fd5b8135610bee848260208601610b50565b91505092915050565b600081359050610c0681611552565b92915050565b60008060008060808587031215610c2257600080fd5b600085013567ffffffffffffffff811115610c3c57600080fd5b610c4887828801610bcd565b945050602085013567ffffffffffffffff811115610c6557600080fd5b610c7187828801610bcd565b935050604085013567ffffffffffffffff811115610c8e57600080fd5b610c9a87828801610ba3565b9250506060610cab87828801610bf7565b91505092959194509250565b600060208284031215610cc957600080fd5b6000610cd784828501610bf7565b91505092915050565b60008060408385031215610cf357600080fd5b6000610d0185828601610bf7565b9250506020610d1285828601610b8e565b9150509250929050565b6000610d288383610e6a565b905092915050565b6000610d3c8383610f68565b905092915050565b610d4d816112b1565b82525050565b610d5c816112b1565b82525050565b6000610d6d826111fe565b610d778185611239565b935083602082028501610d89856111de565b8060005b85811015610dc55784840389528151610da68582610d1c565b9450610db18361121f565b925060208a01995050600181019050610d8d565b50829750879550505050505092915050565b6000610de282611209565b610dec818561124a565b935083602082028501610dfe856111ee565b8060005b85811015610e3a5784840389528151610e1b8582610d30565b9450610e268361122c565b925060208a01995050600181019050610e02565b50829750879550505050505092915050565b610e55816112d5565b82525050565b610e64816112d5565b82525050565b6000610e7582611214565b610e7f818561125b565b9350610e8f81856020860161131a565b610e9881611486565b840191505092915050565b6000610eae82611214565b610eb8818561126c565b9350610ec881856020860161131a565b610ed181611486565b840191505092915050565b6000610ee960168361126c565b9150610ef482611497565b602082019050919050565b6000610f0c600f8361126c565b9150610f17826114c0565b602082019050919050565b6000610f2f601d8361126c565b9150610f3a826114e9565b602082019050919050565b6000610f5260108361126c565b9150610f5d82611512565b602082019050919050565b600060e083016000830151610f806000860182611012565b506020830151610f936020860182610d44565b5060408301518482036040860152610fab8282610e6a565b91505060608301518482036060860152610fc58282610e6a565b91505060808301518482036080860152610fdf8282610d62565b91505060a0830151610ff460a0860182611012565b5060c083015161100760c0860182610e4c565b508091505092915050565b61101b81611301565b82525050565b61102a81611301565b82525050565b6000602082019050818103600083015261104a8184610dd7565b905092915050565b6000602082019050818103600083015261106b81610edc565b9050919050565b6000602082019050818103600083015261108b81610eff565b9050919050565b600060208201905081810360008301526110ab81610f22565b9050919050565b600060208201905081810360008301526110cb81610f45565b9050919050565b60006020820190506110e76000830184611021565b92915050565b600060c0820190506111026000830189611021565b61110f6020830188610d53565b81810360408301526111218187610ea3565b905081810360608301526111358186610ea3565b90506111446080830185611021565b61115160a0830184610e5b565b979650505050505050565b6000611166611177565b9050611172828261137f565b919050565b6000604051905090565b600067ffffffffffffffff82111561119c5761119b611457565b5b602082029050602081019050919050565b600067ffffffffffffffff8211156111c8576111c7611457565b5b6111d182611486565b9050602081019050919050565b6000819050602082019050919050565b6000819050602082019050919050565b600081519050919050565b600081519050919050565b600081519050919050565b6000602082019050919050565b6000602082019050919050565b600082825260208201905092915050565b600082825260208201905092915050565b600082825260208201905092915050565b600082825260208201905092915050565b600061128882611301565b915061129383611301565b9250828210156112a6576112a56113f9565b5b828203905092915050565b60006112bc826112e1565b9050919050565b60006112ce826112e1565b9050919050565b60008115159050919050565b600073ffffffffffffffffffffffffffffffffffffffff82169050919050565b6000819050919050565b82818337600083830152505050565b60005b8381101561133857808201518184015260208101905061131d565b83811115611347576000848401525b50505050565b6000600282049050600182168061136557607f821691505b6020821081141561137957611378611428565b5b50919050565b61138882611486565b810181811067ffffffffffffffff821117156113a7576113a6611457565b5b80604052505050565b60006113bb82611301565b91507fffffffffffffffffffffffffffffffffffffffffffffffffffffffffffffffff8214156113ee576113ed6113f9565b5b600182019050919050565b7f4e487b7100000000000000000000000000000000000000000000000000000000600052601160045260246000fd5b7f4e487b7100000000000000000000000000000000000000000000000000000000600052602260045260246000fd5b7f4e487b7100000000000000000000000000000000000000000000000000000000600052604160045260246000fd5b6000601f19601f8301169050919050565b7f5461736b20616c726561647920636f6d706c6574656400000000000000000000600082015250565b7f496e76616c6964207461736b2069640000000000000000000000000000000000600082015250565b7f596f7520617265206e6f7420612063726561746f72206f66207461736b000000600082015250565b7f496e636f727265637420616d6f756e7400000000000000000000000000000000600082015250565b611544816112c3565b811461154f57600080fd5b50565b61155b81611301565b811461156657600080fd5b5056fea2646970667358221220768d5260b87a82209fe124a28bc70cc0544c4eee4fd76bbdd9f3ba4736ac98de64736f6c63430008040033",
  "immutableReferences": {},
  "source": "//SPDX-License-Identifier: UNLICENSED\npragma solidity ^0.8.4;\n\ncontract Tasks {\n    struct Task {\n        uint256 id;\n        address owner;\n        string title;\n        string description;\n        string[] files;\n\n        uint256 amount;\n        bool completed;\n    }\n\n    Task[] public tasks;\n    uint256 public count;\n\n\n    function createTask(string memory _title, string memory _description, string[] memory _files, uint256 _amount) public returns (uint256) {\n        tasks.push(Task(count, msg.sender, _title, _description, _files, _amount, false));\n        count++;\n        return count - 1;\n    }\n\n    function confirmTask(uint256 _taskId, address payable _worker)\n        external\n        payable\n    {\n        require(_taskId >= 0 && _taskId < count, \"Invalid task id\");\n\n        Task storage task = tasks[_taskId];\n\n        require(msg.value == task.amount, \"Incorrect amount\");\n        require(msg.sender == task.owner, \"You are not a creator of task\");\n        require(task.completed == false, \"Task already completed\");\n\n        _worker.transfer(msg.value);\n        task.completed = true;\n    }\n\n    function getTasksList() public view returns(Task[] memory) {\n        return tasks;\n    }\n}",
  "sourcePath": "C:\\Users\\shado\\OneDrive\\ \\PROJECTS\\germes\\web3\\contracts\\Tasks.sol",
  "compiler": {
    "name": "solc",
    "version": "0.8.4+commit.c7e474f2.Emscripten.clang"
  },
  "schemaVersion": "3.4.12",
  "updatedAt": "2023-03-01T22:39:47.304Z",
  "networkType": "ethereum",
  "devdoc": {
    "kind": "dev",
    "methods": {},
    "version": 1
  },
  "userdoc": {
    "kind": "user",
    "methods": {},
    "version": 1
  }
}